:100000001CC1000049C1000047C1000045C10000FB
:1000100043C1000041C100003FC100003DC10000DC
:100020003BC1000039C1000037C1000035C10000EC
:1000300033C1000031C100002FC100002DC10000FC
:100040002BC1000029C1000027C1000025C100000C
:1000500023C1000021C100001FC1000079C20000BF
:100060001BC1000090C50000C4C5000015C1000000
:1000700013C1000011C100000FC100000DC100003C
:100080000BC1000009C1000007C1000005C100004C
:1000900003C1000001C10000FFC00000FDC000005E
:1000A000FBC00000F9C00000F7C00000F5C0000070
:1000B000F3C00000F1C00000EFC00000EDC0000080
:1000C000EBC00000E9C00000E7C00000E5C0000090
:1000D000E3C00000E1C00000DFC00000DDC00000A0
:1000E000DBC0000083038603750379037F03BD0330
:1000F0008A038E03940398039C03A203A603AA0316
:10010000BD03B003B403B80300000A0B02090C0DD1
:100110000E080703040100000000000000000000BA
:1001200000000000000000000000000000000000CF
:10013000000000001211100000000000000000008C
:1001400000000000000000000000000000000102AC
:1001500010202008081020401020408002010201D9
:100160000804020101020408102040808040201091
:1001700008040201800402018040201008040201EA
:100180000804020101020408102040800102040852
:10019000102040800505050507050808080802022B
:1001A00002020A0A08080404040401010101010111
:1001B00001010303030303030303040707070C0CF4
:1001C0000C0C0C0C0C0C02020202060606060606BB
:1001D00006060B0B0B0B0B0B0B0B00002000230078
:1001E000260029002C002F0032000001000003012E
:1001F0000601090100002200250028002B002E0026
:100200003100340002010000050108010B0100006B
:100210002100240027002A002D00300033000101B6
:100220000000040107010A016364696E6F70737551
:1002300078585B0094012B06990111241FBECFEF63
:10024000D1E2DEBFCDBF00E00CBF12E0A0E0B2E023
:10025000E0E1FBE100E00BBF02C007900D92A63287
:10026000B107D9F722E0A6E2B2E001C01D92A23E9A
:10027000B207E1F712E0C8E3D2E000E005C0229740
:100280000109FE010BBFCDD6C433D10780E00807BA
:10029000B1F795D60C94770DB3CE26E040E855E241
:1002A00060E070E081E492E00ED460E082E066D22B
:1002B00061E082E09CD260E08FE060D261E08FE09C
:1002C00096D260E083E15AD261E083E190D261E0AE
:1002D00086E254D260E086E28AD261E087E34ED2C1
:1002E00060E087E384D261E086E348D261E088E39E
:1002F00045D260E088E37BD261E08DE33FD260E0ED
:100300008DE375D261E08CE339D261E08EE336D2C1
:1003100060E08EE36CD261E080E330D260E080E3A5
:1003200066D261E08EE22AC264E172E086E292E087
:10033000B4C586E292E04AC5AF92BF92CF92DF92F7
:10034000EF92FF920F931F93CF93DF9300D000D0D3
:10035000CDB7DEB782E080D2909337028093360229
:100360008FE07AD2909335028093340283E174D285
:10037000909333028093320280913602909137023B
:10038000892B99F480913002909131021816190648
:1003900064F461E086E32BD28091300290913102C7
:1003A00001979093310280933002809134029091B2
:1003B0003502892B99F480912E0290912F02181604
:1003C000190664F461E08CE312D280912E029091C0
:1003D0002F02019790932F0280932E028091320278
:1003E00090913302892B99F480912C0290912D02E7
:1003F0001816190664F461E08EE2F9D180912C029E
:1004000090912D02019790932D0280932C0288EEFB
:1004100093E0F4D060E086E3EAD160E08CE3E7D1DA
:1004200060E08EE2E4D188EE93E0E8D00CE212E0E6
:100430008EE2E82E82E0F82E90E3C92E92E0D92ECB
:1004400026E0A22E22E0B22E81E492E02DD21816F0
:1004500019060CF06CC04AE061E472E0CE0101962E
:1004600091D4BE016F5F7F4F86E292E05FD5CE01EF
:100470000196ACD41F930F93FF92EF92DF92CF922D
:10048000BF92AF92809127028F93809126028F9323
:10049000EFD70FB6F894DEBF0FBECDBF809130020C
:1004A0009091310297FF0FC061E087E3A0D1809166
:1004B000300290913102919581959109909331028A
:1004C0008093300203C060E087E391D180912E02D7
:1004D00090912F0297FF0FC061E08DE388D180914A
:1004E0002E0290912F0291958195910990932F0260
:1004F00080932E0203C060E08DE379D180912C02BD
:1005000090912D0297FF0FC061E080E370D1809140
:100510002C0290912D0291958195910990932D0235
:1005200080932C0291CF60E080E361D18DCF26963D
:100530000FB6F894DEBF0FBECDBFDF91CF911F91F4
:100540000F91FF90EF90DF90CF90BF90AF90089504
:100550001F920F920FB60F9211242F933F938F93F8
:100560009F93AF93BF938091390290913A02A091EB
:100570003B02B0913C023091380223E0230F2D372B
:1005800020F40196A11DB11D05C026E8230F029697
:10059000A11DB11D209338028093390290933A0235
:1005A000A0933B02B0933C0280913D0290913E02A9
:1005B000A0913F02B09140020196A11DB11D809310
:1005C0003D0290933E02A0933F02B0934002BF9140
:1005D000AF919F918F913F912F910F900FBE0F90F0
:1005E0001F9018952FB7F8946091390270913A02D4
:1005F00080913B0290913C022FBF0895823091057B
:1006000038F0880F991F880F991F05970197F1F708
:100610000895789484B5826084BD84B5816084BD7A
:1006200085B5826085BD85B5816085BDEEE6F0E06B
:10063000808181608083E1E8F0E0108280818260C7
:100640008083808181608083E0E8F0E08081816048
:100650008083E1EBF0E0808184608083E0EBF0E078
:10066000808181608083E1E9F0E080818260808325
:10067000808181608083E0E9F0E080818160808317
:10068000E1EAF0E080818260808380818160808304
:10069000E0EAF0E0808181608083E1E2F1E0808146
:1006A00082608083808181608083E0E2F1E08081EC
:1006B00081608083EAE7F0E08081846080838081CC
:1006C0008260808380818160808380818068808374
:1006D0001092C100089590E0FC013197E231F105DC
:1006E00008F04BC0EE58FF4F96C4809180008F7782
:1006F00003C0809180008F7D809380000895809159
:100700008000877FF9CF84B58F7702C084B58F7D55
:1007100084BD08958091B0008F7703C08091B000B0
:100720008F7D8093B0000895809190008F7707C0EF
:10073000809190008F7D03C080919000877F80938F
:10074000900008958091A0008F7707C08091A0004D
:100750008F7D03C08091A000877F8093A0000895C3
:10076000809120018F7707C0809120018F7D03C089
:1007700080912001877F809320010895CF93DF939C
:1007800090E0FC01E25BFE4F2491FC01EC56FE4F31
:100790008491882349F190E0880F991FFC01E25F62
:1007A000FD4FA591B4918C509E4FFC01C591D49101
:1007B0009FB7611108C0F8948C91209582238C9387
:1007C000888182230AC0623051F4F8948C91322FD0
:1007D000309583238C938881822B888304C0F8947E
:1007E0008C91822B8C939FBFDF91CF9108950F93B3
:1007F0001F93CF93DF931F92CDB7DEB7282F30E042
:10080000F901E85FFE4F8491F901E25BFE4F14911C
:10081000F901EC56FE4F04910023C1F0882319F032
:10082000698359DF6981E02FF0E0EE0FFF1FEC5084
:10083000FE4FA591B4919FB7F8948C91611103C0BC
:100840001095812301C0812B8C939FBF0F90DF9166
:10085000CF911F910F910895CF93DF93282F30E010
:10086000F901E85FFE4F8491F901E25BFE4FD491FC
:10087000F901EC56FE4FC491CC2389F081112BDF96
:10088000EC2FF0E0EE0FFF1FE652FE4FA591B49162
:100890002C912D2381E090E021F480E002C080E0E3
:1008A00090E0DF91CF910895FC01818D228D90E041
:1008B000805C9F4F821B91098F7399270895FC01DB
:1008C000918D828D981731F0828DE80FF11D858D05
:1008D00090E008958FEF9FEF0895FC01918D828D38
:1008E000981761F0828DDF01A80FB11D5D968C9184
:1008F000928D9F5F9F73928F90E008958FEF9FEF8F
:10090000089582E296E0892B39F080E090E0892B0F
:1009100019F098D1811125C080E090E0892B41F039
:1009200080E090E0892B21F00E94000081111CC022
:1009300080E090E0892B41F080E090E0892B21F06D
:100940000E940000811113C080E090E0892BA1F08B
:1009500080E090E0892B81F00E94000081110AC0A4
:1009600008950E940000D8CF0E940000E1CF0E94AD
:100970000000EACF0C9400000895FC01848DDF0193
:10098000A80FB11DA35ABF4F2C91848D90E0019602
:100990008F739927848FA689B7892C93A089B189F1
:1009A0008C9180648C93938D848D981306C00288FB
:1009B000F389E02D80818F7D80830895CF93DF932D
:1009C000EC01888D8823C1F0EA89FB89808185FD4F
:1009D00005C0A889B9898C9186FD0EC00FB607FCA9
:1009E000F5CF808185FFF2CFA889B9898C9185FFE9
:1009F000EDCFCE01C2DFE8CFDF91CF910895CF9246
:100A0000DF92FF920F931F93CF93DF931F92CDB787
:100A1000DEB76C0181E0D60158968C9358975B96AF
:100A20009C915B975C968C915C97981307C050964D
:100A3000ED91FC915197808185FD2DC0F601038DCC
:100A400010E00F5F1F4F0F731127F02EF601848DFA
:100A5000F81210C00FB607FCF9CFD6015096ED91F1
:100A6000FC915197808185FFF1CFC601698385DFB5
:100A70006981ECCF838DE80FF11DE35AFF4F60834E
:100A8000D6015B960C935B975296ED91FC91539730
:100A9000808180620CC0D6015696ED91FC915797EB
:100AA00060835096ED91FC915197808180648083A2
:100AB00081E090E00F90DF91CF911F910F91FF9017
:100AC000DF90CF900895BF92CF92DF92EF92FF9286
:100AD000CF93DF93EC016A017B01B22EE889F9899B
:100AE00082E08083411581EE58076105710599F018
:100AF00060E079E08DE390E0A70196016AD2215091
:100B00003109410951095695479537952795211582
:100B100080E1380790F0E889F989108260E874E88C
:100B20008EE190E0A701960154D22150310941098C
:100B300051095695479537952795EC85FD85308366
:100B4000EE85FF852083188EEC89FD89B082EA89C5
:100B5000FB89808180618083EA89FB89808188604C
:100B60008083EA89FB89808180688083EA89FB89A8
:100B700080818F7D8083DF91CF91FF90EF90DF9018
:100B8000CF90BF9008951F920F920FB60F9211242D
:100B90000BB60F922F938F939F93EF93FF93E09158
:100BA0005102F09152028081E0915702F091580277
:100BB00082FD12C0908180915A028F5F8F732091C5
:100BC0005B02821751F0E0915A02F0E0EF5BFD4FBB
:100BD000958F80935A0201C08081FF91EF919F9180
:100BE0008F912F910F900BBE0F900FBE0F901F9003
:100BF00018951F920F920FB60F9211240BB60F92F9
:100C00002F933F934F935F936F937F938F939F9314
:100C1000AF93BF93EF93FF9381E492E0AEDEFF9139
:100C2000EF91BF91AF919F918F917F916F915F9164
:100C30004F913F912F910F900BBE0F900FBE0F90D1
:100C40001F90189581E492E02FDE21E0892B09F4B2
:100C500020E0822F0895109244021092430288EE01
:100C600093E0A0E0B0E08093450290934602A09309
:100C70004702B093480289E192E090934202809348
:100C8000410285EC90E090934E0280934D0284ECFB
:100C900090E09093500280934F0280EC90E090930C
:100CA00052028093510281EC90E090935402809321
:100CB000530282EC90E0909356028093550286ECAA
:100CC00090E0909358028093570210925A0210922B
:100CD0005B0210925C0210925D020895CF92DF9247
:100CE000EF92FF920F931F93CF93DF937C016A01E2
:100CF000EB0100E010E00C151D0571F06991D701C2
:100D0000ED91FC910190F081E02DC7011995892B9F
:100D100019F00F5F1F4FEFCFC801DF91CF911F91E7
:100D20000F91FF90EF90DF90CF9008950F931F9356
:100D3000CF93DF93EC0156DC688779878A879B879E
:100D4000E881F9810680F781E02DCE01199597FFA2
:100D500014C048DC088519852A853B85601B710B0A
:100D6000820B930B0C811D812E813F8160177107CF
:100D70008207930728F38FEF9FEFDF91CF911F91A9
:100D80000F910895EF92FF920F931F93CF93DF93EC
:100D9000EC018B01E42E64E172E07FD0C801C6DF74
:100DA000FF24E7FCF09497FD09C08E159F0531F0F4
:100DB000682FCE01F0D0C801B9DFF5CFCE01DF91A9
:100DC000CF911F910F91FF90EF900895FC018081CA
:100DD0009181C3C1CF93DF93EC0188819981009702
:100DE00009F0BBD1198218821D821C821B821A82D3
:100DF000DF91CF9108950F931F93CF93DF93EC0171
:100E00008B016F5F7F4F8881998136D2009731F0D7
:100E1000998388831B830A8381E001C080E0DF918E
:100E2000CF911F910F910895CF93DF93EC018881AB
:100E30009981892B29F08A819B818617970758F41D
:100E4000CE01D9DF882341F08C819D81892B19F453
:100E5000E881F981108281E0DF91CF910895EF92CE
:100E6000FF920F931F93CF93DF93EC017B018A01D5
:100E7000BA01DADF811103C0CE01ACDF06C01D83E9
:100E80000C83B70188819981ECD2CE01DF91CF919B
:100E90001F910F91FF90EF900895FC011182108235
:100EA00013821282158214826115710551F0FB01C3
:100EB00001900020E9F7AF0141505109461B570B43
:100EC000CECF08950F931F93CF93DF938C01EB0147
:100ED000FC0180819181009789F0428153812C81AE
:100EE0003D814217530748F068817981BAD28C81DD
:100EF0009D81F8019583848312C02FD188819981C7
:100F0000F801918380838A819B81938382838C8182
:100F10009D8195838483198218821B821A821D8287
:100F20001C82DF91CF911F910F910895CF93DF9392
:100F3000EC018617970709F0C5DFCE01DF91CF914D
:100F40000895EF92FF920F931F93CF93DF93EC01DD
:100F50007B010C811D816115710511F480E014C0C5
:100F60004115510581F0040F151FB8015DDF88237D
:100F7000A9F3288139818C819D81B701820F931F4C
:100F800070D21D830C8381E0DF91CF911F910F916F
:100F9000FF90EF900895CF93DF931F921F92CDB7EC
:100FA000DEB769831A8241E050E0BE016F5F7F4F78
:100FB000C8DF0F900F90DF91CF910895089529DB3E
:100FC000FDDF6BD9C1E8D4E0B7D92097E9F399DC0C
:100FD000FBCFA1E21A2EAA1BBB1BFD010DC0AA1F4D
:100FE000BB1FEE1FFF1FA217B307E407F50720F092
:100FF000A21BB30BE40BF50B661F771F881F991F0D
:101000001A9469F760957095809590959B01AC0155
:10101000BD01CF010895EE0FFF1F0590F491E02D63
:1010200019940790F691E02D1994CF93DF938230B5
:10103000910510F482E090E0E091E002F091E1028D
:1010400020E030E0A0E0B0E0309739F140815181FC
:1010500048175907B8F04817590771F482819381EE
:10106000109729F013969C938E9312972CC090930F
:10107000E1028093E00227C02115310531F04217CB
:10108000530718F0A901DB0101C0EF019A01BD016E
:10109000DF010280F381E02DD7CF21153105F9F072
:1010A000281B390B2430310580F48A819B8161151E
:1010B000710521F0FB019383828304C09093E102C8
:1010C0008093E002FE01329644C0FE01E20FF31F5E
:1010D0008193919322503109398328833AC020911A
:1010E000DE023091DF02232B41F420910202309185
:1010F00003023093DF022093DE0220910002309140
:1011000001022115310541F42DB73EB7409104028B
:1011100050910502241B350BE091DE02F091DF02B5
:10112000E217F307A0F42E1B3F0B2817390778F0BE
:10113000AC014E5F5F4F2417350748F04E0F5F1F1D
:101140005093DF024093DE028193919302C0E0E06E
:10115000F0E0CF01DF91CF910895CF93DF93009717
:1011600009F487C0FC01329713821282C091E00219
:10117000D091E102209781F420813181280F391F1D
:101180008091DE029091DF028217930779F5F09348
:10119000DF02E093DE026DC0DE0120E030E0AE173A
:1011A000BF0750F412964D915C9113979D01411524
:1011B000510509F1DA01F3CFB383A2834081518154
:1011C000840F951F8A179B0771F48D919C9111973D
:1011D000840F951F02969183808312968D919C9126
:1011E0001397938382832115310529F4F093E1024B
:1011F000E093E0023EC0D9011396FC93EE93129760
:101200004D915D91A40FB51FEA17FB0779F480811A
:101210009181840F951F0296D90111969C938E930C
:101220008281938113969C938E931297E0E0F0E075
:101230008A819B81009719F0FE01EC01F9CFCE0164
:10124000029628813981820F931F2091DE0230910E
:10125000DF022817390769F4309729F41092E10268
:101260001092E00202C013821282D093DF02C09378
:10127000DE02DF91CF9108956F927F928F929F92BD
:10128000AF92BF92CF92DF92EF92FF920F931F9394
:10129000CF93DF93EC01CB01209779F4DF91CF91CD
:1012A0001F910F91FF90EF90DF90CF90BF90AF9084
:1012B0009F908F907F906F90B8CEFE01E60FF71F42
:1012C0009E0122503109E217F30708F4A8C0D901A2
:1012D0000D911C91119706171707B0F005301105F5
:1012E00008F49BC0A801445051094617570708F459
:1012F00094C002501109061B170B019311936D93B3
:101300007C93CF012ADF89C05B01A01AB10A4E018C
:10131000800E911EA091E002B091E102612C712C2F
:1013200060E070E0109709F449C0A815B905C9F547
:10133000ED90FC901197670142E0C40ED11CCA14D5
:10134000DB0478F147018A189B08640142E0C40E6F
:10135000D11C1296BC9012971396AC91B5E0CB16A7
:10136000D10440F0B282A38391828082D9018D930F
:101370009C9309C00E5F1F4F0E0D1F1DF9011183B5
:101380000083EB2DFA2F6115710531F0DB01139607
:10139000FC93EE93129741C0F093E102E093E002D8
:1013A0003CC06D917C9111976616770608F43B015D
:1013B000BD0112960D90BC91A02DB4CF6091DE02BC
:1013C0007091DF0268157905E9F468167906D0F4A2
:1013D00040910002509101024115510541F44DB771
:1013E0005EB76091040270910502461B570BE4172B
:1013F000F507A8F4F093DF02E093DE02F901918390
:1014000080830BC012DE7C01009749F0A801BE0169
:101410001FD0CE01A2DEC70104C0CE0102C080E011
:1014200090E0DF91CF911F910F91FF90EF90DF90AF
:10143000CF90BF90AF909F908F907F906F900895C6
:101440009111F0C2803219F089508550D0F708957B
:10145000FB01DC0102C001900D9241505040D8F7D1
:101460000895FB01DC0101900D920020E1F7089541
:10147000CF93DF93CDB7DEB72E970FB6F894DEBFCC
:101480000FBECDBF85E08C838C899D899A8389832B
:10149000AE01485E5F4F6E897F89CE01019699D17A
:1014A0002E960FB6F894DEBF0FBECDBFDF91CF9161
:1014B000089520FD09C0FC0123FD05C022FF02C0E4
:1014C0007383628351834083089544FD10C046FDB9
:1014D00010C0DB01FC01AA0FBB1FEE1FFF1F109401
:1014E000D1F76A0F7B1F8E1F9F1F31E003C033E0CF
:1014F00001C034E0660F771F881F991F3150D1F764
:10150000620F711D811D911D08950F931F93CF933D
:10151000DF938C01C80194D2EC0197FD06C090DFE7
:10152000892BC1F7B801CE01C9D2CE01DF91CF918D
:101530001F910F9108958F929F92AF92CF92DF9259
:10154000EF92FF920F931F93CF93DF93EC01A62EA0
:101550004A01022F75D2AC0155274B32510521F0BB
:101560004D32510549F40068AA9411F480E060C03E
:10157000CE0166D297FDFACF102F1D7F302F30732A
:10158000F1F48033E1F4FF24FA94FA0C09F43DC03D
:10159000CE0156D297FD39C0382F3F7D383549F4FA
:1015A0001264AA94AA9489F1CE014AD297FF07C087
:1015B0002CC006FF02C0126001C01261AF2CC12C0A
:1015C000D12C760120ED280F283078F014FF03C0CD
:1015D000BE0174D217C02A3040F016FFF9CF2F7D1C
:1015E0003FEE320F3630A0F72750412FC701B6012A
:1015F0006CDF6B017C011260AA9451F0CE0120D205
:1016000097FFE0CF11FD04C0B1CFC12CD12C7601E2
:1016100017FF08C0F094E094D094C094C11CD11C72
:10162000E11CF11C212FB701A601C40142DF81E0BA
:10163000DF91CF911F910F91FF90EF90DF90CF90AE
:10164000AF909F908F9008957F928F929F92AF92CC
:10165000BF92CF92DF92EF92FF920F931F93CF939F
:10166000DF93CDB7DEB7A1970FB6F894DEBF0FBEFC
:10167000CDBF5C017A018E010F5F1F4F680180E2D0
:10168000D8011D928A95E9F7F501738040E050E09A
:10169000812CB0E0912C81E090E0F90173FCA591E0
:1016A00073FEA1918F017A2F9F01A11103C080E0E9
:1016B00090E07BC0AE3519F44115510559F1E92D83
:1016C000F0E0E417F5073CF4AD3569F1AD3219F4FB
:1016D000BB2319F103C0B11101C08A2EE72FE69593
:1016E000E695E69586010E0F111DF801A72FA7704C
:1016F0008C0102C0000F111FAA95E2F7D801B0813A
:10170000BA2BB083781559F0781510F47F5FE6CFC7
:101710007150E4CF9924939403C0B1E001C0B0E0CC
:101720004F5F5F4FBACFBB2319F08E8180628E83EB
:10173000911003C09924939415C0F601CE018196AF
:10174000208120952193E817F907D1F7F3CFE11411
:10175000F10429F0D7018C93F70131967F01615094
:10176000F1F0912CC50169A36BD169A197FD15C05A
:10177000282F269526952695F601E20FF11D20814A
:1017800030E0AC014770552702C0359527954A9542
:10179000E2F720FDDCCFB50191D1911088CFE114A3
:1017A000F10411F0D7011C92C801A1960FB6F8946C
:1017B000DEBF0FBECDBFDF91CF911F910F91FF9084
:1017C000EF90DF90CF90BF90AF909F908F907F90E1
:1017D00008954F925F927F928F929F92AF92BF92A5
:1017E000CF92DF92EF92FF920F931F93CF93DF93ED
:1017F0001F92CDB7DEB78C012B017A01FC01178255
:101800001682A12CF801D380F201D3FC8591D3FE7E
:101810008191382F2F01882309F4EEC090E039839D
:101820000FDE3981892B19F0C8016FDEEBCF35321D
:1018300041F4F201D3FC3591D3FE31912F013532C1
:1018400059F4C8013983FCD0398197FDD3C03817CA
:10185000C9F2B80133D1D0C03A3241F4D3FC35914A
:10186000D3FE31912F01BB24B39401C0B12C712C54
:1018700020ED230F2A3088F4FB2DF260BF2E672D58
:1018800070E080E090E040E220DE762EF201D3FCB2
:101890003591D3FE31912F01EBCFB1FE03C0711012
:1018A00003C0AAC077247A94383619F03C3661F028
:1018B00014C0F201D3FC3591D3FE31912F0138369B
:1018C00061F4FB2DF860BF2E8B2D8460B82EF201E1
:1018D000D3FC3591D3FE31912F01332309F48CC011
:1018E000632F70E088E292E039839FD03981892BA1
:1018F00009F482C0B0FC07C0F701C080D180C701E5
:1019000002967C0102C0C12CD12C3E3649F4F8016C
:101910004681578160E070E02B2DC601CADD72CF91
:10192000333699F4B1FC02C077247394C80188D08F
:1019300097FD60C0C114D10429F0F6018083C6016F
:1019400001966C017A9491F751C03B3551F49201A4
:10195000A601672DC80178DE2C01009709F046C06A
:1019600040C0C8013983D1DD398197FD43C03F367E
:1019700051F128F4343619F1393661F128C0333782
:1019800069F03537E1F023C0C114D10429F0F60124
:101990008082C60101966C017A9459F0C80150D03A
:1019A0004C0197FD06C04CDD892B71F3B801C401D1
:1019B00085D0C114D104D1F0F601108217C0FB2DDF
:1019C000F062BF2E07C08B2D8061B82E03C09B2D07
:1019D0009064B92E2B2DA601672DC801ACDD8111B5
:1019E00005C0F8018381807329F406C0B0FC0ACFDA
:1019F000A39408CFAA2019F08A2D90E002C08FEF9F
:101A00009FEF0F90DF91CF911F910F91FF90EF907B
:101A1000DF90CF90BF90AF909F908F907F905F901E
:101A20004F900895992788270895FC010590061680
:101A300021F00020D9F7C00108953197CF01089512
:101A4000CF93DF93EC012B8120FF33C026FF0AC028
:101A50002F7B2B838E819F8101969F838E838A812A
:101A600090E029C022FF0FC0E881F9818081992789
:101A700087FD9095009719F420622B831AC0319648
:101A8000F983E8830EC0EA85FB85199597FF09C0A5
:101A90002B81019611F480E101C080E2822B8B83BF
:101AA00008C02E813F812F5F3F4F3F832E839927B0
:101AB00002C08FEF9FEFDF91CF910895FB0123814B
:101AC00020FF12C026FD10C08F3F3FEF930761F04B
:101AD00082832F7D20642383268137812150310921
:101AE00037832683992708958FEF9FEF089512E09B
:101AF000C8E3D2E000E005C022970109FE010BBF58
:101B000090DACA33D10780E00807B1F7F894FFCF25
:101B10000000E2028000583A256420593A256420EA
:101B20005A3A25640000000000FF046E0654046D5C
:061B3000045F04DE040066
:020000023000CC
:10E000000D9489F10D94B2F10D94B2F10D94B2F129
:10E010000D94B2F10D94B2F10D94B2F10D94B2F1F0
:10E020000D94B2F10D94B2F10D94B2F10D94B2F1E0
:10E030000D94B2F10D94B2F10D94B2F10D94B2F1D0
:10E040000D94B2F10D94B2F10D94B2F10D94B2F1C0
:10E050000D94B2F10D94B2F10D94B2F10D94B2F1B0
:10E060000D94B2F10D94B2F10D94B2F10D94B2F1A0
:10E070000D94B2F10D94B2F10D94B2F10D94B2F190
:10E080000D94B2F10D94B2F10D94B2F10D94B2F180
:10E090000D94B2F10D94B2F10D94B2F10D94B2F170
:10E0A0000D94B2F10D94B2F10D94B2F10D94B2F160
:10E0B0000D94B2F10D94B2F10D94B2F10D94B2F150
:10E0C0000D94B2F10D94B2F10D94B2F10D94B2F140
:10E0D0000D94B2F10D94B2F10D94B2F10D94B2F130
:10E0E0000D94B2F141546D656761323536300041AF
:10E0F000726475696E6F206578706C6F72657220DE
:10E1000073746B3530305632206279204D4C530099
:10E11000426F6F746C6F616465723E004875683F52
:10E1200000436F6D70696C6564206F6E203D200048
:10E130004350552054797065202020203D20005FF9
:10E140005F4156525F415243485F5F3D2000415658
:10E1500052204C696243205665723D20004743437C
:10E160002056657273696F6E203D20004350552024
:10E1700049442020202020203D20004C6F7720663D
:10E18000757365202020203D20004869676820665F
:10E190007573652020203D200045787420667573D6
:10E1A00065202020203D20004C6F636B2066757336
:10E1B000652020203D20004D617220203720323024
:10E1C000313300312E362E3800342E332E350056A2
:10E1D00023202020414444522020206F7020636F70
:10E1E00064652020202020696E73747275637469E1
:10E1F0006F6E2061646472202020496E74657272B3
:10E20000757074006E6F20766563746F7200726A49
:10E210006D702020006A6D70200057686174207056
:10E220006F72743A00506F7274206E6F7420737541
:10E2300070706F72746564004D7573742062652030
:10E2400061206C6574746572002000577269747483
:10E25000696E672045450052656164696E672045B7
:10E26000450045452065727220636E743D00504F35
:10E27000525400303D5A65726F2061646472003FF1
:10E280003D43505520737461747300403D454550C3
:10E29000524F4D207465737400423D426C696E6B41
:10E2A000204C454400453D44756D70204545505215
:10E2B0004F4D00463D44756D7020464C415348001B
:10E2C000483D48656C70004C3D4C69737420492F83
:10E2D0004F20506F72747300513D51756974005234
:10E2E0003D44756D702052414D00563D73686F7707
:10E2F00020696E7465727275707420566563746FF0
:10E30000727300593D506F727420626C696E6B00BD
:10E310002A0011241FBECFEFD1E2DEBFCDBF01E046
:10E320000CBF12E0A0E0B2E0EEE1FDEF03E00BBFB6
:10E3300002C007900D92A030B107D9F712E0A0E01B
:10E34000B2E001C01D92AE30B107E1F70F9460F367
:10E350000D948DFE01E20EBF0FEF0DBF11241FBE05
:10E360000D9460F30D9400F020E030E040ED57E0B4
:10E3700005C0FA013197F1F72F5F3F4F2817390792
:10E38000C0F308959C01260F311DC901A0E0B0E043
:10E390002F5F3F4FABBFFC018791882361F08093D3
:10E3A000C6008091C00086FFFCCF8091C0008064D1
:10E3B0008093C000EACF08958DE08093C6008091DD
:10E3C000C00086FFFCCF8091C00080648093C000B5
:10E3D0008AE08093C6008091C00086FFFCCF8091C8
:10E3E000C00080648093C00008950F94C2F10F9420
:10E3F000DCF10895FC019081992359F09093C600B7
:10E400008091C00086FFFCCF8091C0008064809323
:10E41000C0003196992379F70895282F982F929567
:10E420009F70892F805D8A3308F0895F8093C600D2
:10E430008091C00086FFFCCF8091C00080648093F3
:10E44000C000822F8F70982F905D9A3308F0995FEB
:10E450009093C6008091C00086FFFCCF8091C000E1
:10E4600080648093C00008959C01FB01853691056E
:10E470001CF46330710594F0C90164E670E00F94F8
:10E480002EFE605D7F4F6093C6008091C00086FFC6
:10E49000FCCF8091C00080648093C0002B30310598
:10E4A00014F43297B4F0C90164E670E00F942EFEC4
:10E4B0006AE070E00F942EFE605D7F4F6093C600AF
:10E4C0008091C00086FFFCCF8091C0008064809363
:10E4D000C000C9016AE070E00F942EFEC0968093E0
:10E4E000C6008091C00086FFFCCF8091C000806490
:10E4F0008093C00008951F93182F8EE692EE60E07F
:10E500000F94C2F11093C6008091C00086FFFCCF2B
:10E510008091C00080648093C0000F94DCF11F9153
:10E5200008952F923F924F925F926F927F928F92B7
:10E530009F92AF92BF92CF92DF92EF92FF920F9392
:10E540001F93DF93CF93CDB7DEB762970FB6F894E2
:10E55000DEBF0FBECDBF382E622ECA01DB015C01CB
:10E560006D01772420E2222E2E010894411C511CBB
:10E570008BC081E0A81680E0B80681E0C80680E084
:10E58000D80628F0C601AA27BB270F940DF2BB2797
:10E59000AD2D9C2D8B2D0F940DF28A2D0F940DF225
:10E5A0002092C6008091C00086FFFCCF8091C00001
:10E5B00080648093C0009DE29093C6008091C0006B
:10E5C00086FFFCCF8091C00080648093C0002092C1
:10E5D000C6008091C00086FFFCCF8091C00080649F
:10E5E0008093C00019828601750188249924A1E0D6
:10E5F0003A1651F03A1620F0B2E03B1661F409C029
:10E600000BBFF701779007C0C7010F9477FE782EF4
:10E6100002C0F7017080872D0F940DF22092C60082
:10E620008091C00086FFFCCF8091C0008064809301
:10E63000C000872D8052F401EF70F0708F3520F408
:10E64000E40DF51D708204C0E40DF51D8EE280839B
:10E650000894E11CF11C011D111D0894811C911CE2
:10E6600090E18916910409F0C2CF80E190E0A0E02A
:10E67000B0E0A80EB91ECA1EDB1E198AC2010F9493
:10E68000FAF10F94DCF16A94662009F072CF629679
:10E690000FB6F894DEBF0FBECDBFCF91DF911F91B3
:10E6A0000F91FF90EF90DF90CF90BF90AF909F9031
:10E6B0008F907F906F905F904F903F902F90089534
:10E6C0002F923F924F925F926F927F928F929F9282
:10E6D000AF92BF92CF92DF92EF92FF920F931F9370
:10E6E000DF93CF93CDB7DEB7CD53D1400FB6F894BB
:10E6F000DEBF0FBECDBF01E20EBF0FEF0DBF94B75F
:10E70000F894A89514BE80916000886180936000A1
:10E7100010926000789493FF05C0E0910002F091A0
:10E7200001021995279A2F9A8091C00082608093E8
:10E73000C00080E18093C40088E18093C1000000A4
:10E74000EE24FF24870144E0A42EB12CCC24DD2448
:10E7500024C0C5010197F1F70894E11CF11C011DCB
:10E76000111D21E2E2162EE4F20620E0020720E06D
:10E77000120718F031E0C32ED12CC801B70127ECE5
:10E780003BE140E050E00F9441FE611571058105C9
:10E79000910519F485B1805885B98091C00087FD35
:10E7A00003C0C114D104A9F2A6014F5F5F4FC25E3E
:10E7B000DE4F59834883CE51D140C25EDE4F8881FF
:10E7C0009981CE51D140019711F00D9410FEC05D9A
:10E7D000DE4F19821882C053D14060E0C15DDE4F28
:10E7E0001882CF52D14088249924C35DDE4F19820C
:10E7F0001882CD52D140C05EDE4F188219821A8233
:10E800001B82C052D140CE5CDE4F188219821A8220
:10E810001B82C253D140EE24FF2487010BBFF701B6
:10E8200007911691C45CDE4F19830883CC53D14005
:10E830000D940BFEC25EDE4F28813981CE51D1404E
:10E840002130310509F52091C600C25EDE4F1982E4
:10E850001882CE51D14022C02F5F3F4F4F4F5F4FA4
:10E86000213082E138078AE7480780E0580780F0C6
:10E87000C45CDE4FE881F981CC53D140EF5FFF4F9C
:10E8800019F0EE27FF27099420E030E040E050E047
:10E890008091C00087FFE0CF2091C600C35DDE4FAE
:10E8A00048815981CD52D1404F5F5F4FC35DDE4FEC
:10E8B00059834883CD52D140213209F063C64A3092
:10E8C000510508F05FC60894811C911C53E0851621
:10E8D000910409F059C600E010E018C081E280936D
:10E8E000C6008091C00086FFFCCF8091C00080648C
:10E8F0008093C0002F5F3F4F2931310579F70F9486
:10E90000DCF10F5F1F4F0530110519F020E030E0FA
:10E91000E5CF10920A0210920B0210920C02109294
:10E920000D02109206021092070210920802109235
:10E930000902109202021092030210920402109235
:10E9400005028FEE90EE60E00F94F5F180E191EE1C
:10E9500060E00F94C2F18091C00087FFFCCF9091DE
:10E96000C600903608F09F759032B8F09093C600BC
:10E970008091C00086FFFCCF8091C00080648093AE
:10E98000C000A0E2A093C6008091C00086FFFCCF2B
:10E990008091C00080648093C000983409F4D7C18E
:10E9A0009934B8F4923409F459C1933458F490333B
:10E9B00019F1903308F4E3C59F33A1F1903409F0C5
:10E9C000DEC5BDC0953409F470C1963409F0D7C5D1
:10E9D00098C1923509F42BC2933538F49C3409F46C
:10E9E000F5C1913509F0CBC518C2963509F445C279
:10E9F000993509F0C4C567C483E792EE62E00F94CD
:10EA0000F5F110920602109207021092080210927D
:10EA1000090210920A0210920B0210920C0210923C
:10EA20000D0213C18FE792EE62E00F94F5F18FEEC5
:10EA300090EE60E00F94F5F181E291EE60E00F94CA
:10EA4000C2F187EB91EE60E00F94F5F180E391EE77
:10EA500060E00F94C2F184EE90EE60E00F94F5F167
:10EA60008FE391EE60E00F94C2F186E090E061E008
:10EA700070E00F9434F20F94DCF18DE591EE60E0DC
:10EA80000F94C2F189EC91EE60E00F94F5F18EE401
:10EA900091EE60E00F94C2F183EC91EE60E00F9490
:10EAA000F5F18CE691EE60E00F94C2F18EE10F94E7
:10EAB0000DF288E90F940DF281E00F940DF20F949E
:10EAC000DCF18BE791EE60E00F94C2F119E0E0E039
:10EAD000F0E010935700E4918E2F0F940DF20F94F5
:10EAE000DCF18AE891EE60E00F94C2F1E3E0F0E03F
:10EAF00010935700E4918E2F0F940DF20F94DCF1D8
:10EB000089E991EE60E00F94C2F1E2E0F0E0109349
:10EB10005700E4918E2F0F940DF20F94DCF188EAE8
:10EB200091EE60E00F94C2F1E1E0F0E01093570045
:10EB30001491812F0F940DF20F94DCF107CF8BE825
:10EB400092EE62E00F94F5F18BE492EE60E00F94A8
:10EB5000F5F10F94DCF100E010E019C0C8016F2D51
:10EB60000F947FFEFF2031F489E492EE60E00F9471
:10EB7000C2F10BC0F092C6008091C00086FFFCCFAE
:10EB80008091C00080648093C0000F5F1F4FC80158
:10EB900081519F41A0E0B0E0ABBFFC01F790BAE229
:10EBA000FB1621F0E2E000301E07C1F60F94DCF105
:10EBB0000F94DCF187E592EE60E00F94F5F10F948D
:10EBC000DCF1CC24DD2400E010E01EC0C8010F946D
:10EBD00077FEF82E882331F489E492EE60E00F94FA
:10EBE000C2F10BC08093C6008091C00086FFFCCFAD
:10EBF0008091C00080648093C000FE1419F00894D6
:10EC0000C11CD11C0F5F1F4FC80181519F41A0E063
:10EC1000B0E0ABBFFC01E790FAE2EF1621F022E092
:10EC20000030120799F60F94DCF10F94DCF182E6C4
:10EC300092EE60E00F94C2F1C60161E070E00F94C3
:10EC400034F20F94DCF10F94DCF110920202109276
:10EC50000302109204021092050278CE89E992EE26
:10EC600062E00F94F5F1279A2F9A16C02F9880E052
:10EC700090E0E0EDF7E03197F1F7019684369105E9
:10EC8000C1F72F9A80E090E0E0EDF7E03197F1F7DF
:10EC9000019684369105C1F78091C00087FFE6CFC9
:10ECA0008091C00087FFFCCF64C485EA92EE62E0E9
:10ECB0000F94F5F140910202509103026091040219
:10ECC0007091050281E020E10F9491F2809102029F
:10ECD00090910302A0910402B091050280509F4FD1
:10ECE000AF4FBF4F8093020290930302A0930402A0
:10ECF000B093050280509041A040B04008F426CE69
:10ED0000A4CF83EB92EE62E00F94F5F140910602FE
:10ED100050910702609108027091090280E020E1A1
:10ED20000F9491F28091060290910702A09108023F
:10ED3000B091090280509F4FAF4FBF4F80930602A2
:10ED400090930702A0930802B0930902FFCD80ECD4
:10ED500092EE62E00F94F5F183E792EE60E00F949B
:10ED6000F5F18FE792EE60E00F94F5F18BE892EE0B
:10ED700060E00F94F5F189E992EE60E00F94F5F10F
:10ED800085EA92EE60E00F94F5F183EB92EE60E09D
:10ED90000F94F5F180EC92EE60E00F94F5F187ECC2
:10EDA00092EE60E00F94F5F188ED92EE60E00F9442
:10EDB000F5F18FED92EE60E00F94F5F18AEE92EEB0
:10EDC00060E00F94F5F183E093EEBDCD87EC92EE19
:10EDD00062E00F94F5F181E40F947BF282E40F94EA
:10EDE0007BF283E40F947BF284E40F947BF285E45E
:10EDF0000F947BF286E40F947BF287E40F947BF20E
:10EE000088E40F947BF28AE40F947BF28BE40F94F6
:10EE10007BF28CE40F947BF299CD88ED92EE62E068
:10EE20000F94F5F1772473948824992409C48FED05
:10EE300092EE62E00F94F5F140910A0250910B02BC
:10EE400060910C0270910D0282E020E10F9491F22A
:10EE500080910A0290910B02A0910C02B0910D02D8
:10EE600080509F4FAF4FBF4F80930A0290930B0289
:10EE7000A0930C02B0930D0269CD8AEE92EE62E08F
:10EE80000F94F5F184EE90EE60E00F94F5F18FECC5
:10EE900091EE60E00F94F5F1662477244301CC5D98
:10EEA000DE4F19821882C452D140D401C301B695F5
:10EEB000A79597958795CA5DDE4F88839983AA8326
:10EEC000BB83C652D140CC5DDE4FA881B981C4520C
:10EED000D1401196CC5DDE4FB983A883C452D14096
:10EEE000CD0162E070E00F9434F2B0E2B093C6005E
:10EEF0008091C00086FFFCCF8091C0008064809329
:10EF0000C000EDE2E093C6008091C00086FFFCCF18
:10EF10008091C00080648093C000F0E2F093C6004E
:10EF20008091C00086FFFCCF8091C00080648093F8
:10EF3000C000CA5DDE4FE880F9800A811B81C6529D
:10EF4000D140BB27A12F902F8F2D0F940DF2CA5DBA
:10EF5000DE4F8881C652D1400F940DF2B0E2FB2EF5
:10EF6000F092C6008091C00086FFFCCF8091C00067
:10EF700080648093C0000DE30093C6008091C000C0
:10EF800086FFFCCF8091C00080648093C00010E2B7
:10EF90001093C6008091C00086FFFCCF8091C00016
:10EFA00080648093C0008BBEF3012791C65DDE4F65
:10EFB0002883CA52D140A22EBB24CC24DD2408943D
:10EFC000611C711C811C911C8BBEF3018791282E42
:10EFD0003324442455240894611C711C811C911C09
:10EFE0008BBEF3013791C55DDE4F3883CB52D140E4
:10EFF0000894611C711C811C911C8BBEF30147910C
:10F00000C45DDE4F4883CC52D140ADEFEA2EAFEF66
:10F01000FA2EAFEF0A2FAFEF1A2F6E0C7F1C801E57
:10F02000911E142D032DF22CEE24EA0CFB1C0C1D5A
:10F030001D1D0F940DF220E22093C6008091C000A8
:10F0400086FFFCCF8091C00080648093C000C65DC5
:10F05000DE4F8881CA52D1400F940DF230E23093D6
:10F06000C6008091C00086FFFCCF8091C000806404
:10F070008093C000C45DDE4F8881CC52D1400F9494
:10F080000DF240E24093C6008091C00086FFFCCFA5
:10F090008091C00080648093C000C55DDE4F888190
:10F0A000CB52D1400F940DF250E25093C6008091A4
:10F0B000C00086FFFCCF8091C00080648093C000B8
:10F0C0008FEFE8168FEFF80680E0080780E018075A
:10F0D00031F484E092EE60E00F94C2F1DFC0D80119
:10F0E000C7018070907CA070B0708050904CA040A0
:10F0F000B040D1F52FEF3FE340E050E0E222F322B1
:10F1000004231523CA5DDE4FA880B980CA80DB8046
:10F11000C652D140AE0CBF1CC01ED11EAA0CBB1CD7
:10F12000CC1CDD1C8EE092EE60E00F94C2F1BB2798
:10F13000A12F902F8F2D0F940DF28E2D0F940DF285
:10F1400030E23093C6008091C00086FFFCCF8091F2
:10F15000C00080648093C0004EE34093C60080915D
:10F16000C00086FFFCCF87C08EE09EEFA0E0B0E03D
:10F17000E822F9220A231B239CE0E91694E9F90608
:10F1800090E0090790E0190709F088C0C45DDE4FE0
:10F19000A881CC52D140EA2EFF2400E010E0102FCD
:10F1A0000F2DFE2CEE24C55DDE4FB881CB52D14031
:10F1B000EB0EF11C011D111DD601C501817090706F
:10F1C000A070B070DC0199278827E80EF91E0A1F8D
:10F1D0001B1F20EF30E040E050E0A222B322C42207
:10F1E000D52241E1AA0CBB1CCC1CDD1C4A95D1F7F1
:10F1F000EA0CFB1C0C1D1D1D81E090E0A0E0B0E0BE
:10F20000282239224A225B2235E1220C331C441C7D
:10F21000551C3A95D1F7E20CF31C041D151D57013E
:10F220006801AA0CBB1CCC1CDD1C85E192EE60E0E1
:10F230000F94C2F1C801AA27BB270F940DF2BB2778
:10F24000A12F902F8F2D0F940DF28E2D0F940DF274
:10F2500090E29093C6008091C00086FFFCCF809121
:10F26000C00080648093C000AEE3A093C60080918C
:10F27000C00086FFFCCF8091C00080648093C000F6
:10F28000C601AA27BB270F940DF2BB27AD2D9C2DDD
:10F290008B2D0F940DF28A2D0F940DF20F94DCF14B
:10F2A000CC5DDE4FE881F981C452D140F99709F471
:10F2B0004DCBF4E0EF2EF12C012D112D6E0C7F1CA7
:10F2C000801E911EF2CD83E093EE62E00F94F5F183
:10F2D0008AE192EE60E00F94C2F18091C00087FF56
:10F2E000FCCF1091C6001F751093C6008091C0001E
:10F2F00086FFFCCF8091C00080648093C0000F9493
:10F30000DCF1812F81548A3108F036C1163409F4BA
:10F3100095C0173490F4133409F44EC0143430F40B
:10F320001134F1F0123409F01DC130C0143409F465
:10F3300059C0153409F016C16BC01A3409F4C4C0A1
:10F340001B3438F4173409F48FC0183409F00AC19B
:10F35000A1C01B3409F4D2C01C3409F003C1E8C0B9
:10F360008FEF81B90DC082B1809582B980E090E0C5
:10F37000E0EDF7E03197F1F70196883C9105C1F790
:10F380008091C00087FFEFCF12B8EFC08FEF84B934
:10F390000DC085B1809585B980E090E0E0EDF7E0A3
:10F3A0003197F1F70196883C9105C1F78091C00033
:10F3B00087FFEFCF15B8D9C08FEF87B90DC088B1DF
:10F3C000809588B980E090E0E0EDF7E03197F1F7C3
:10F3D0000196883C9105C1F78091C00087FFEFCF6F
:10F3E00018B8C3C08FEF8AB90DC08BB180958BB9A7
:10F3F00080E090E0E0EDF7E03197F1F70196883C8E
:10F400009105C1F78091C00087FFEFCF1BB8ADC059
:10F410008FEF8DB90DC08EB180958EB980E090E0F0
:10F42000E0EDF7E03197F1F70196883C9105C1F7DF
:10F430008091C00087FFEFCF1EB897C08FEF80BBD1
:10F440000DC081B3809581BB80E090E0E0EDF7E0F6
:10F450003197F1F70196883C9105C1F78091C00082
:10F4600087FFEFCF11BA81C08FEF83BB0DC084B38C
:10F47000809584BB80E090E0E0EDF7E03197F1F714
:10F480000196883C9105C1F78091C00087FFEFCFBE
:10F4900014BA6BC08FEF809301010FC080910201FD
:10F4A00080958093020180E090E0E0EDF7E03197F5
:10F4B000F1F70196883C9105C1F78091C00087FF64
:10F4C000EDCF1092020151C08FEF809304010FC065
:10F4D0008091050180958093050180E090E0E0ED4A
:10F4E000F7E03197F1F70196883C9105C1F78091DB
:10F4F000C00087FFEDCF1092050137C08FEF8093DA
:10F5000007010FC08091080180958093080180E079
:10F5100090E0E0EDF7E03197F1F70196883C910536
:10F52000C1F78091C00087FFEDCF109208011DC088
:10F530008FEF80930A010FC080910B01809580931B
:10F540000B0180E090E0E0EDF7E03197F1F70196F4
:10F55000883C9105C1F78091C00087FFEDCF1092E4
:10F560000B0103C085E292EEEEC98091C00087FFD7
:10F57000FCCF8091C600EAC988E392EEE4C98CE131
:10F5800091EEE1C988249924933011F1943028F444
:10F59000913089F09230B8F408C0953061F195301F
:10F5A000F0F0963009F048C043C02B3109F042C951
:10F5B00091E06BE13FC96227C15DDE4F2883CF52E6
:10F5C000D14092E037C9B22FA0E0622793E032C960
:10F5D000822F90E0A82BB92B622794E02BC92E3004
:10F5E00009F039C3622795E0C05DDE4F19821882A9
:10F5F000C053D1401FC9E1E0F0E0EC0FFD1FC05D3A
:10F60000DE4F08811981C053D140E00FF11F2083E4
:10F610000F5F1F4FC05DDE4F19830883C053D14079
:10F6200062270A171B0709F005C9D80196E002C92D
:10F63000261709F010C303C0973009F0FBC87724E0
:10F640009981933109F412C19431C8F4963009F4C8
:10F65000D8C0973050F4923009F406C1933009F4C1
:10F660006DC0913009F059C253C0913109F477C08F
:10F67000923108F0BBC0903109F04FC2F5C098310B
:10F6800009F487C0993150F4953109F4EFC09531F0
:10F6900008F4C6C1963109F040C2C2C19A3109F4DA
:10F6A0006CC09A3108F491C09B3109F45BC09D3164
:10F6B00009F033C29D81903359F48F81882311F46E
:10F6C0009EE11CC0813011F091E018C098E916C08D
:10F6D000892F807591F0903539F4E0E0F0E089E011
:10F6E0008093570094910AC0983539F4E3E0F0E034
:10F6F00089E080935700949101C090E01A821B82A8
:10F700008D818C831D829E831F8227E030E009C299
:10F710001A8288E08B8381E48C8386E58D8382E581
:10F720008E8389E48F8383E5888780E589878FE5E9
:10F730008A8782E38B872BE030E0F3C18A818139AD
:10F7400041F0823941F0803911F48FE005C080E04A
:10F7500003C082E001C08AE01A828B8344C0772410
:10F76000739482C08D81882311F48EE12CC0813086
:10F7700011F081E028C088E926C01A82E1E0F0E0BB
:10F7800089E08093570084918B831C8224E030E0D1
:10F79000C8C18B81803589F48C81883039F4E2E0EE
:10F7A000F0E089E08093570084910DC0E0E0F0E044
:10F7B00089E080935700849106C0E3E0F0E089E09F
:10F7C0008093570084911A82DFCF8D81836C99E0FA
:10F7D000E1E0F0E0082E90935700E89507B600FCB2
:10F7E000FDCF1A821B8223E030E09BC180EC8A832C
:10F7F000CE5CDE4F188219821A821B82C253D1401E
:10F800008EC18A8190E0A0E0B0E0582F44273327D2
:10F8100022278B8190E0A0E0B0E0DC0199278827C7
:10F82000282B392B4A2B5B2B8D8190E0A0E0B0E098
:10F83000282B392B4A2B5B2B8C8190E0A0E0B0E089
:10F84000BA2FA92F982F8827282B392B4A2B5B2BCF
:10F85000220F331F441F551FC05EDE4F288339839C
:10F860004A835B83C052D1401A8259C13A81C95C34
:10F87000DE4F3883C753D140CA5CDE4F1882C6536F
:10F88000D1408B81C82EDD24CA5CDE4F488159816E
:10F89000C653D140C42AD52A933109F082C0CE5C28
:10F8A000DE4F88819981AA81BB81C253D1408050AB
:10F8B000904CA340B04030F583E0CE5CDE4FE88052
:10F8C000F9800A811B81C253D140F70100935B008C
:10F8D00080935700E89507B600FCFDCFCE5CDE4F65
:10F8E000088119812A813B81C253D14000501F4FAA
:10F8F0002F4F3F4FCE5CDE4F088319832A833B8313
:10F90000C253D140C05EDE4F488159816A817B81FC
:10F91000C052D140DE011B9631E08C9111962C91A2
:10F9200011971296C75CDE4F2883C953D140C85C3B
:10F93000DE4F1882C853D14090E0C85CDE4FE881AA
:10F94000F981C853D1408E2B9F2B0C01FA01609393
:10F950005B0030935700E89511244E5F5F4F6F4F67
:10F960007F4F0EEFE02E0FEFF02ECE0CDF1CC114F8
:10F97000D10499F685E0C05EDE4F088119812A81A5
:10F980003B81C052D140F80120935B008093570027
:10F99000E89507B600FCFDCF81E180935700E8951C
:10F9A00035C0C05EDE4F88819981AA81BB81C0527B
:10F9B000D140B695A795979587957C018601ABE0D8
:10F9C000AA2EB12CAC0EBD1E0BC0D5016D915D01F0
:10F9D000C7010F947FFE0894E11CF11C01501040F8
:10F9E0000115110591F7A60160E070E0440F551F65
:10F9F000661F771FC05EDE4FE880F9800A811B8199
:10FA0000C052D1404E0D5F1D601F711F1A82C05E33
:10FA1000DE4F488359836A837B83C052D1407FC0C5
:10FA2000FA80C55CDE4FF882CB53D140C65CDE4F16
:10FA30001882CA53D1408B81C82EDD24C65CDE4FAC
:10FA400008811981CA53D140C02AD12A1A828981DA
:10FA5000BE016D5F7F4F843121F59601C05EDE4FA0
:10FA6000E880F9800A811B81C052D1400BBFF701A9
:10FA700087919691DB018C9311969C936E5F7F4FDB
:10FA8000D801C7010296A11DB11DC05EDE4F88835B
:10FA90009983AA83BB83C052D14022503040F1F6F3
:10FAA00036C0C05EDE4F288139814A815B81C052F9
:10FAB000D1400894C108D108760100E010E0089414
:10FAC000C11CD11C0894E11CF11C011D111DE20E8A
:10FAD000F31E041F151F21BDBB27A52F942F832FB5
:10FAE00082BD2F5F3F4F4F4F5F4FF89A80B5DB01CC
:10FAF0008D93BD012E153F054007510761F7C05E8C
:10FB0000DE4F288339834A835B83C052D1409601FC
:10FB10002D5F3F4FFB01108204C080EC8A8322E0FE
:10FB200030E08BE18093C6008091C00086FFFCCF5F
:10FB30008091C00080648093C000C15DDE4FF88179
:10FB4000CF52D140F093C6008091C00086FFFCCF19
:10FB50008091C00080648093C000432F3093C60022
:10FB60008091C00086FFFCCF8091C00080648093AC
:10FB7000C000922F2093C6008091C00086FFFCCF6A
:10FB80008091C00080648093C0008EE08093C600A6
:10FB90008091C00086FFFCCF8091C000806480937C
:10FBA000C00065E1C15DDE4FE880CF52D1406E25D7
:10FBB00069276427FE01319610C090819093C6009A
:10FBC0008091C00086FFFCCF31968091C000806498
:10FBD0008093C0006927215030402115310569F715
:10FBE0006093C6008091C00086FFFCCF8091C0006A
:10FBF00080648093C00085B1805885B9772081F4F6
:10FC0000C15DDE4F0881CF52D1400F5FC15DDE4F35
:10FC10000883CF52D14090E0A0E0B0E00D941AF4F8
:10FC200027982F9880E090E020ED37E0F901319798
:10FC3000F1F7019684369105C9F700008091C00064
:10FC40008D7F8093C00081E180935700E895EE2777
:10FC5000FF270994FFCF90E00D941AF497FB092E2B
:10FC600007260AD077FD04D02ED006D000201AF443
:10FC7000709561957F4F0895F6F7909581959F4F08
:10FC80000895A1E21A2EAA1BBB1BFD010DC0AA1FDD
:10FC9000BB1FEE1FFF1FA217B307E407F50720F0F5
:10FCA000A21BB30BE40BF50B661F771F881F991F70
:10FCB0001A9469F760957095809590959B01AC01B9
:10FCC000BD01CF010895AA1BBB1B51E107C0AA1FAC
:10FCD000BB1FA617B70710F0A61BB70B881F991FED
:10FCE0005A95A9F780959095BC01CD010895F99991
:10FCF000FECF92BD81BDF89A992780B50895262F31
:10FD0000F999FECF1FBA92BD81BD20BD0FB6F89400
:0EFD1000FA9AF99A0FBE01960895F894FFCF63
:040000033000E000E9
:00000001FF
