:100000001CC1000049C1000047C1000045C10000FB
:1000100043C1000041C100003FC100003DC10000DC
:100020003BC1000039C1000037C1000035C10000EC
:1000300033C1000031C100002FC100002DC10000FC
:100040002BC1000029C1000027C1000025C100000C
:1000500023C1000021C100001FC1000079C20000BF
:100060001BC1000090C50000C4C5000015C1000000
:1000700013C1000011C100000FC100000DC100003C
:100080000BC1000009C1000007C1000005C100004C
:1000900003C1000001C10000FFC00000FDC000005E
:1000A000FBC00000F9C00000F7C00000F5C0000070
:1000B000F3C00000F1C00000EFC00000EDC0000080
:1000C000EBC00000E9C00000E7C00000E5C0000090
:1000D000E3C00000E1C00000DFC00000DDC00000A0
:1000E000DBC0000083038603750379037F03BD0330
:1000F0008A038E03940398039C03A203A603AA0316
:10010000BD03B003B403B80300000A0B02090C0DD1
:100110000E080703040100000000000000000000BA
:1001200000000000000000000000000000000000CF
:10013000000000001211100000000000000000008C
:1001400000000000000000000000000000000102AC
:1001500010202008081020401020408002010201D9
:100160000804020101020408102040808040201091
:1001700008040201800402018040201008040201EA
:100180000804020101020408102040800102040852
:10019000102040800505050507050808080802022B
:1001A00002020A0A08080404040401010101010111
:1001B00001010303030303030303040707070C0CF4
:1001C0000C0C0C0C0C0C02020202060606060606BB
:1001D00006060B0B0B0B0B0B0B0B00002000230078
:1001E000260029002C002F0032000001000003012E
:1001F0000601090100002200250028002B002E0026
:100200003100340002010000050108010B0100006B
:100210002100240027002A002D00300033000101B6
:100220000000040107010A016364696E6F70737551
:1002300078585B0094012B06990111241FBECFEF63
:10024000D1E2DEBFCDBF00E00CBF12E0A0E0B2E023
:10025000E0E1FBE100E00BBF02C007900D92A63287
:10026000B107D9F722E0A6E2B2E001C01D92A23E9A
:10027000B207E1F712E0C8E3D2E000E005C0229740
:100280000109FE010BBFCDD6C433D10780E00807BA
:10029000B1F795D60C94770DB3CE26E040E855E241
:1002A00060E070E081E492E00ED460E082E066D22B
:1002B00061E082E09CD260E08FE060D261E08FE09C
:1002C00096D260E083E15AD261E083E190D261E0AE
:1002D00086E254D260E086E28AD261E087E34ED2C1
:1002E00060E087E384D261E086E348D261E088E39E
:1002F00045D260E088E37BD261E08DE33FD260E0ED
:100300008DE375D261E08CE339D261E08EE336D2C1
:1003100060E08EE36CD261E080E330D260E080E3A5
:1003200066D261E08EE22AC264E172E086E292E087
:10033000B4C586E292E04AC5AF92BF92CF92DF92F7
:10034000EF92FF920F931F93CF93DF9300D000D0D3
:10035000CDB7DEB782E080D2909337028093360229
:100360008FE07AD2909335028093340283E174D285
:10037000909333028093320280913602909137023B
:10038000892B99F480913002909131021816190648
:1003900064F461E086E32BD28091300290913102C7
:1003A00001979093310280933002809134029091B2
:1003B0003502892B99F480912E0290912F02181604
:1003C000190664F461E08CE312D280912E029091C0
:1003D0002F02019790932F0280932E028091320278
:1003E00090913302892B99F480912C0290912D02E7
:1003F0001816190664F461E08EE2F9D180912C029E
:1004000090912D02019790932D0280932C0288EEFB
:1004100093E0F4D060E086E3EAD160E08CE3E7D1DA
:1004200060E08EE2E4D188EE93E0E8D00CE212E0E6
:100430008EE2E82E82E0F82E90E3C92E92E0D92ECB
:1004400026E0A22E22E0B22E81E492E02DD21816F0
:1004500019060CF06CC04AE061E472E0CE0101962E
:1004600091D4BE016F5F7F4F86E292E05FD5CE01EF
:100470000196ACD41F930F93FF92EF92DF92CF922D
:10048000BF92AF92809127028F93809126028F9323
:10049000EFD70FB6F894DEBF0FBECDBF809130020C
:1004A0009091310297FF0FC061E087E3A0D1809166
:1004B000300290913102919581959109909331028A
:1004C0008093300203C060E087E391D180912E02D7
:1004D00090912F0297FF0FC061E08DE388D180914A
:1004E0002E0290912F0291958195910990932F0260
:1004F00080932E0203C060E08DE379D180912C02BD
:1005000090912D0297FF0FC061E080E370D1809140
:100510002C0290912D0291958195910990932D0235
:1005200080932C0291CF60E080E361D18DCF26963D
:100530000FB6F894DEBF0FBECDBFDF91CF911F91F4
:100540000F91FF90EF90DF90CF90BF90AF90089504
:100550001F920F920FB60F9211242F933F938F93F8
:100560009F93AF93BF938091390290913A02A091EB
:100570003B02B0913C023091380223E0230F2D372B
:1005800020F40196A11DB11D05C026E8230F029697
:10059000A11DB11D209338028093390290933A0235
:1005A000A0933B02B0933C0280913D0290913E02A9
:1005B000A0913F02B09140020196A11DB11D809310
:1005C0003D0290933E02A0933F02B0934002BF9140
:1005D000AF919F918F913F912F910F900FBE0F90F0
:1005E0001F9018952FB7F8946091390270913A02D4
:1005F00080913B0290913C022FBF0895823091057B
:1006000038F0880F991F880F991F05970197F1F708
:100610000895789484B5826084BD84B5816084BD7A
:1006200085B5826085BD85B5816085BDEEE6F0E06B
:10063000808181608083E1E8F0E0108280818260C7
:100640008083808181608083E0E8F0E08081816048
:100650008083E1EBF0E0808184608083E0EBF0E078
:10066000808181608083E1E9F0E080818260808325
:10067000808181608083E0E9F0E080818160808317
:10068000E1EAF0E080818260808380818160808304
:10069000E0EAF0E0808181608083E1E2F1E0808146
:1006A00082608083808181608083E0E2F1E08081EC
:1006B00081608083EAE7F0E08081846080838081CC
:1006C0008260808380818160808380818068808374
:1006D0001092C100089590E0FC013197E231F105DC
:1006E00008F04BC0EE58FF4F96C4809180008F7782
:1006F00003C0809180008F7D809380000895809159
:100700008000877FF9CF84B58F7702C084B58F7D55
:1007100084BD08958091B0008F7703C08091B000B0
:100720008F7D8093B0000895809190008F7707C0EF
:10073000809190008F7D03C080919000877F80938F
:10074000900008958091A0008F7707C08091A0004D
:100750008F7D03C08091A000877F8093A0000895C3
:10076000809120018F7707C0809120018F7D03C089
:1007700080912001877F809320010895CF93DF939C
:1007800090E0FC01E25BFE4F2491FC01EC56FE4F31
:100790008491882349F190E0880F991FFC01E25F62
:1007A000FD4FA591B4918C509E4FFC01C591D49101
:1007B0009FB7611108C0F8948C91209582238C9387
:1007C000888182230AC0623051F4F8948C91322FD0
:1007D000309583238C938881822B888304C0F8947E
:1007E0008C91822B8C939FBFDF91CF9108950F93B3
:1007F0001F93CF93DF931F92CDB7DEB7282F30E042
:10080000F901E85FFE4F8491F901E25BFE4F14911C
:10081000F901EC56FE4F04910023C1F0882319F032
:10082000698359DF6981E02FF0E0EE0FFF1FEC5084
:10083000FE4FA591B4919FB7F8948C91611103C0BC
:100840001095812301C0812B8C939FBF0F90DF9166
:10085000CF911F910F910895CF93DF93282F30E010
:10086000F901E85FFE4F8491F901E25BFE4FD491FC
:10087000F901EC56FE4FC491CC2389F081112BDF96
:10088000EC2FF0E0EE0FFF1FE652FE4FA591B49162
:100890002C912D2381E090E021F480E002C080E0E3
:1008A00090E0DF91CF910895FC01818D228D90E041
:1008B000805C9F4F821B91098F7399270895FC01DB
:1008C000918D828D981731F0828DE80FF11D858D05
:1008D00090E008958FEF9FEF0895FC01918D828D38
:1008E000981761F0828DDF01A80FB11D5D968C9184
:1008F000928D9F5F9F73928F90E008958FEF9FEF8F
:10090000089582E296E0892B39F080E090E0892B0F
:1009100019F098D1811125C080E090E0892B41F039
:1009200080E090E0892B21F00E94000081111CC022
:1009300080E090E0892B41F080E090E0892B21F06D
:100940000E940000811113C080E090E0892BA1F08B
:1009500080E090E0892B81F00E94000081110AC0A4
:1009600008950E940000D8CF0E940000E1CF0E94AD
:100970000000EACF0C9400000895FC01848DDF0193
:10098000A80FB11DA35ABF4F2C91848D90E0019602
:100990008F739927848FA689B7892C93A089B189F1
:1009A0008C9180648C93938D848D981306C00288FB
:1009B000F389E02D80818F7D80830895CF93DF932D
:1009C000EC01888D8823C1F0EA89FB89808185FD4F
:1009D00005C0A889B9898C9186FD0EC00FB607FCA9
:1009E000F5CF808185FFF2CFA889B9898C9185FFE9
:1009F000EDCFCE01C2DFE8CFDF91CF910895CF9246
:100A0000DF92FF920F931F93CF93DF931F92CDB787
:100A1000DEB76C0181E0D60158968C9358975B96AF
:100A20009C915B975C968C915C97981307C050964D
:100A3000ED91FC915197808185FD2DC0F601038DCC
:100A400010E00F5F1F4F0F731127F02EF601848DFA
:100A5000F81210C00FB607FCF9CFD6015096ED91F1
:100A6000FC915197808185FFF1CFC601698385DFB5
:100A70006981ECCF838DE80FF11DE35AFF4F60834E
:100A8000D6015B960C935B975296ED91FC91539730
:100A9000808180620CC0D6015696ED91FC915797EB
:100AA00060835096ED91FC915197808180648083A2
:100AB00081E090E00F90DF91CF911F910F91FF9017
:100AC000DF90CF900895BF92CF92DF92EF92FF9286
:100AD000CF93DF93EC016A017B01B22EE889F9899B
:100AE00082E08083411581EE58076105710599F018
:100AF00060E079E08DE390E0A70196016AD2215091
:100B00003109410951095695479537952795211582
:100B100080E1380790F0E889F989108260E874E88C
:100B20008EE190E0A701960154D22150310941098C
:100B300051095695479537952795EC85FD85308366
:100B4000EE85FF852083188EEC89FD89B082EA89C5
:100B5000FB89808180618083EA89FB89808188604C
:100B60008083EA89FB89808180688083EA89FB89A8
:100B700080818F7D8083DF91CF91FF90EF90DF9018
:100B8000CF90BF9008951F920F920FB60F9211242D
:100B90000BB60F922F938F939F93EF93FF93E09158
:100BA0005102F09152028081E0915702F091580277
:100BB00082FD12C0908180915A028F5F8F732091C5
:100BC0005B02821751F0E0915A02F0E0EF5BFD4FBB
:100BD000958F80935A0201C08081FF91EF919F9180
:100BE0008F912F910F900BBE0F900FBE0F901F9003
:100BF00018951F920F920FB60F9211240BB60F92F9
:100C00002F933F934F935F936F937F938F939F9314
:100C1000AF93BF93EF93FF9381E492E0AEDEFF9139
:100C2000EF91BF91AF919F918F917F916F915F9164
:100C30004F913F912F910F900BBE0F900FBE0F90D1
:100C40001F90189581E492E02FDE21E0892B09F4B2
:100C500020E0822F0895109244021092430288EE01
:100C600093E0A0E0B0E08093450290934602A09309
:100C70004702B093480289E192E090934202809348
:100C8000410285EC90E090934E0280934D0284ECFB
:100C900090E09093500280934F0280EC90E090930C
:100CA00052028093510281EC90E090935402809321
:100CB000530282EC90E0909356028093550286ECAA
:100CC00090E0909358028093570210925A0210922B
:100CD0005B0210925C0210925D020895CF92DF9247
:100CE000EF92FF920F931F93CF93DF937C016A01E2
:100CF000EB0100E010E00C151D0571F06991D701C2
:100D0000ED91FC910190F081E02DC7011995892B9F
:100D100019F00F5F1F4FEFCFC801DF91CF911F91E7
:100D20000F91FF90EF90DF90CF9008950F931F9356
:100D3000CF93DF93EC0156DC688779878A879B879E
:100D4000E881F9810680F781E02DCE01199597FFA2
:100D500014C048DC088519852A853B85601B710B0A
:100D6000820B930B0C811D812E813F8160177107CF
:100D70008207930728F38FEF9FEFDF91CF911F91A9
:100D80000F910895EF92FF920F931F93CF93DF93EC
:100D9000EC018B01E42E64E172E07FD0C801C6DF74
:100DA000FF24E7FCF09497FD09C08E159F0531F0F4
:100DB000682FCE01F0D0C801B9DFF5CFCE01DF91A9
:100DC000CF911F910F91FF90EF900895FC018081CA
:100DD0009181C3C1CF93DF93EC0188819981009702
:100DE00009F0BBD1198218821D821C821B821A82D3
:100DF000DF91CF9108950F931F93CF93DF93EC0171
:100E00008B016F5F7F4F8881998136D2009731F0D7
:100E1000998388831B830A8381E001C080E0DF918E
:100E2000CF911F910F910895CF93DF93EC018881AB
:100E30009981892B29F08A819B818617970758F41D
:100E4000CE01D9DF882341F08C819D81892B19F453
:100E5000E881F981108281E0DF91CF910895EF92CE
:100E6000FF920F931F93CF93DF93EC017B018A01D5
:100E7000BA01DADF811103C0CE01ACDF06C01D83E9
:100E80000C83B70188819981ECD2CE01DF91CF919B
:100E90001F910F91FF90EF900895FC011182108235
:100EA00013821282158214826115710551F0FB01C3
:100EB00001900020E9F7AF0141505109461B570B43
:100EC000CECF08950F931F93CF93DF938C01EB0147
:100ED000FC0180819181009789F0428153812C81AE
:100EE0003D814217530748F068817981BAD28C81DD
:100EF0009D81F8019583848312C02FD188819981C7
:100F0000F801918380838A819B81938382838C8182
:100F10009D8195838483198218821B821A821D8287
:100F20001C82DF91CF911F910F910895CF93DF9392
:100F3000EC018617970709F0C5DFCE01DF91CF914D
:100F40000895EF92FF920F931F93CF93DF93EC01DD
:100F50007B010C811D816115710511F480E014C0C5
:100F60004115510581F0040F151FB8015DDF88237D
:100F7000A9F3288139818C819D81B701820F931F4C
:100F800070D21D830C8381E0DF91CF911F910F916F
:100F9000FF90EF900895CF93DF931F921F92CDB7EC
:100FA000DEB769831A8241E050E0BE016F5F7F4F78
:100FB000C8DF0F900F90DF91CF910895089529DB3E
:100FC000FDDF6BD9C1E8D4E0B7D92097E9F399DC0C
:100FD000FBCFA1E21A2EAA1BBB1BFD010DC0AA1F4D
:100FE000BB1FEE1FFF1FA217B307E407F50720F092
:100FF000A21BB30BE40BF50B661F771F881F991F0D
:101000001A9469F760957095809590959B01AC0155
:10101000BD01CF010895EE0FFF1F0590F491E02D63
:1010200019940790F691E02D1994CF93DF938230B5
:10103000910510F482E090E0E091E002F091E1028D
:1010400020E030E0A0E0B0E0309739F140815181FC
:1010500048175907B8F04817590771F482819381EE
:10106000109729F013969C938E9312972CC090930F
:10107000E1028093E00227C02115310531F04217CB
:10108000530718F0A901DB0101C0EF019A01BD016E
:10109000DF010280F381E02DD7CF21153105F9F072
:1010A000281B390B2430310580F48A819B8161151E
:1010B000710521F0FB019383828304C09093E102C8
:1010C0008093E002FE01329644C0FE01E20FF31F5E
:1010D0008193919322503109398328833AC020911A
:1010E000DE023091DF02232B41F420910202309185
:1010F00003023093DF022093DE0220910002309140
:1011000001022115310541F42DB73EB7409104028B
:1011100050910502241B350BE091DE02F091DF02B5
:10112000E217F307A0F42E1B3F0B2817390778F0BE
:10113000AC014E5F5F4F2417350748F04E0F5F1F1D
:101140005093DF024093DE028193919302C0E0E06E
:10115000F0E0CF01DF91CF910895CF93DF93009717
:1011600009F487C0FC01329713821282C091E00219
:10117000D091E102209781F420813181280F391F1D
:101180008091DE029091DF028217930779F5F09348
:10119000DF02E093DE026DC0DE0120E030E0AE173A
:1011A000BF0750F412964D915C9113979D01411524
:1011B000510509F1DA01F3CFB383A2834081518154
:1011C000840F951F8A179B0771F48D919C9111973D
:1011D000840F951F02969183808312968D919C9126
:1011E0001397938382832115310529F4F093E1024B
:1011F000E093E0023EC0D9011396FC93EE93129760
:101200004D915D91A40FB51FEA17FB0779F480811A
:101210009181840F951F0296D90111969C938E930C
:101220008281938113969C938E931297E0E0F0E075
:101230008A819B81009719F0FE01EC01F9CFCE0164
:10124000029628813981820F931F2091DE0230910E
:10125000DF022817390769F4309729F41092E10268
:101260001092E00202C013821282D093DF02C09378
:10127000DE02DF91CF9108956F927F928F929F92BD
:10128000AF92BF92CF92DF92EF92FF920F931F9394
:10129000CF93DF93EC01CB01209779F4DF91CF91CD
:1012A0001F910F91FF90EF90DF90CF90BF90AF9084
:1012B0009F908F907F906F90B8CEFE01E60FF71F42
:1012C0009E0122503109E217F30708F4A8C0D901A2
:1012D0000D911C91119706171707B0F005301105F5
:1012E00008F49BC0A801445051094617570708F459
:1012F00094C002501109061B170B019311936D93B3
:101300007C93CF012ADF89C05B01A01AB10A4E018C
:10131000800E911EA091E002B091E102612C712C2F
:1013200060E070E0109709F449C0A815B905C9F547
:10133000ED90FC901197670142E0C40ED11CCA14D5
:10134000DB0478F147018A189B08640142E0C40E6F
:10135000D11C1296BC9012971396AC91B5E0CB16A7
:10136000D10440F0B282A38391828082D9018D930F
:101370009C9309C00E5F1F4F0E0D1F1DF9011183B5
:101380000083EB2DFA2F6115710531F0DB01139607
:10139000FC93EE93129741C0F093E102E093E002D8
:1013A0003CC06D917C9111976616770608F43B015D
:1013B000BD0112960D90BC91A02DB4CF6091DE02BC
:1013C0007091DF0268157905E9F468167906D0F4A2
:1013D00040910002509101024115510541F44DB771
:1013E0005EB76091040270910502461B570BE4172B
:1013F000F507A8F4F093DF02E093DE02F901918390
:1014000080830BC012DE7C01009749F0A801BE0169
:101410001FD0CE01A2DEC70104C0CE0102C080E011
:1014200090E0DF91CF911F910F91FF90EF90DF90AF
:10143000CF90BF90AF909F908F907F906F900895C6
:101440009111F0C2803219F089508550D0F708957B
:10145000FB01DC0102C001900D9241505040D8F7D1
:101460000895FB01DC0101900D920020E1F7089541
:10147000CF93DF93CDB7DEB72E970FB6F894DEBFCC
:101480000FBECDBF85E08C838C899D899A8389832B
:10149000AE01485E5F4F6E897F89CE01019699D17A
:1014A0002E960FB6F894DEBF0FBECDBFDF91CF9161
:1014B000089520FD09C0FC0123FD05C022FF02C0E4
:1014C0007383628351834083089544FD10C046FDB9
:1014D00010C0DB01FC01AA0FBB1FEE1FFF1F109401
:1014E000D1F76A0F7B1F8E1F9F1F31E003C033E0CF
:1014F00001C034E0660F771F881F991F3150D1F764
:10150000620F711D811D911D08950F931F93CF933D
:10151000DF938C01C80194D2EC0197FD06C090DFE7
:10152000892BC1F7B801CE01C9D2CE01DF91CF918D
:101530001F910F9108958F929F92AF92CF92DF9259
:10154000EF92FF920F931F93CF93DF93EC01A62EA0
:101550004A01022F75D2AC0155274B32510521F0BB
:101560004D32510549F40068AA9411F480E060C03E
:10157000CE0166D297FDFACF102F1D7F302F30732A
:10158000F1F48033E1F4FF24FA94FA0C09F43DC03D
:10159000CE0156D297FD39C0382F3F7D383549F4FA
:1015A0001264AA94AA9489F1CE014AD297FF07C087
:1015B0002CC006FF02C0126001C01261AF2CC12C0A
:1015C000D12C760120ED280F283078F014FF03C0CD
:1015D000BE0174D217C02A3040F016FFF9CF2F7D1C
:1015E0003FEE320F3630A0F72750412FC701B6012A
:1015F0006CDF6B017C011260AA9451F0CE0120D205
:1016000097FFE0CF11FD04C0B1CFC12CD12C7601E2
:1016100017FF08C0F094E094D094C094C11CD11C72
:10162000E11CF11C212FB701A601C40142DF81E0BA
:10163000DF91CF911F910F91FF90EF90DF90CF90AE
:10164000AF909F908F9008957F928F929F92AF92CC
:10165000BF92CF92DF92EF92FF920F931F93CF939F
:10166000DF93CDB7DEB7A1970FB6F894DEBF0FBEFC
:10167000CDBF5C017A018E010F5F1F4F680180E2D0
:10168000D8011D928A95E9F7F501738040E050E09A
:10169000812CB0E0912C81E090E0F90173FCA591E0
:1016A00073FEA1918F017A2F9F01A11103C080E0E9
:1016B00090E07BC0AE3519F44115510559F1E92D83
:1016C000F0E0E417F5073CF4AD3569F1AD3219F4FB
:1016D000BB2319F103C0B11101C08A2EE72FE69593
:1016E000E695E69586010E0F111DF801A72FA7704C
:1016F0008C0102C0000F111FAA95E2F7D801B0813A
:10170000BA2BB083781559F0781510F47F5FE6CFC7
:101710007150E4CF9924939403C0B1E001C0B0E0CC
:101720004F5F5F4FBACFBB2319F08E8180628E83EB
:10173000911003C09924939415C0F601CE018196AF
:10174000208120952193E817F907D1F7F3CFE11411
:10175000F10429F0D7018C93F70131967F01615094
:10176000F1F0912CC50169A36BD169A197FD15C05A
:10177000282F269526952695F601E20FF11D20814A
:1017800030E0AC014770552702C0359527954A9542
:10179000E2F720FDDCCFB50191D1911088CFE114A3
:1017A000F10411F0D7011C92C801A1960FB6F8946C
:1017B000DEBF0FBECDBFDF91CF911F910F91FF9084
:1017C000EF90DF90CF90BF90AF909F908F907F90E1
:1017D00008954F925F927F928F929F92AF92BF92A5
:1017E000CF92DF92EF92FF920F931F93CF93DF93ED
:1017F0001F92CDB7DEB78C012B017A01FC01178255
:101800001682A12CF801D380F201D3FC8591D3FE7E
:101810008191382F2F01882309F4EEC090E039839D
:101820000FDE3981892B19F0C8016FDEEBCF35321D
:1018300041F4F201D3FC3591D3FE31912F013532C1
:1018400059F4C8013983FCD0398197FDD3C03817CA
:10185000C9F2B80133D1D0C03A3241F4D3FC35914A
:10186000D3FE31912F01BB24B39401C0B12C712C54
:1018700020ED230F2A3088F4FB2DF260BF2E672D58
:1018800070E080E090E040E220DE762EF201D3FCB2
:101890003591D3FE31912F01EBCFB1FE03C0711012
:1018A00003C0AAC077247A94383619F03C3661F028
:1018B00014C0F201D3FC3591D3FE31912F0138369B
:1018C00061F4FB2DF860BF2E8B2D8460B82EF201E1
:1018D000D3FC3591D3FE31912F01332309F48CC011
:1018E000632F70E088E292E039839FD03981892BA1
:1018F00009F482C0B0FC07C0F701C080D180C701E5
:1019000002967C0102C0C12CD12C3E3649F4F8016C
:101910004681578160E070E02B2DC601CADD72CF91
:10192000333699F4B1FC02C077247394C80188D08F
:1019300097FD60C0C114D10429F0F6018083C6016F
:1019400001966C017A9491F751C03B3551F49201A4
:10195000A601672DC80178DE2C01009709F046C06A
:1019600040C0C8013983D1DD398197FD43C03F367E
:1019700051F128F4343619F1393661F128C0333782
:1019800069F03537E1F023C0C114D10429F0F60124
:101990008082C60101966C017A9459F0C80150D03A
:1019A0004C0197FD06C04CDD892B71F3B801C401D1
:1019B00085D0C114D104D1F0F601108217C0FB2DDF
:1019C000F062BF2E07C08B2D8061B82E03C09B2D07
:1019D0009064B92E2B2DA601672DC801ACDD8111B5
:1019E00005C0F8018381807329F406C0B0FC0ACFDA
:1019F000A39408CFAA2019F08A2D90E002C08FEF9F
:101A00009FEF0F90DF91CF911F910F91FF90EF907B
:101A1000DF90CF90BF90AF909F908F907F905F901E
:101A20004F900895992788270895FC010590061680
:101A300021F00020D9F7C00108953197CF01089512
:101A4000CF93DF93EC012B8120FF33C026FF0AC028
:101A50002F7B2B838E819F8101969F838E838A812A
:101A600090E029C022FF0FC0E881F9818081992789
:101A700087FD9095009719F420622B831AC0319648
:101A8000F983E8830EC0EA85FB85199597FF09C0A5
:101A90002B81019611F480E101C080E2822B8B83BF
:101AA00008C02E813F812F5F3F4F3F832E839927B0
:101AB00002C08FEF9FEFDF91CF910895FB0123814B
:101AC00020FF12C026FD10C08F3F3FEF930761F04B
:101AD00082832F7D20642383268137812150310921
:101AE00037832683992708958FEF9FEF089512E09B
:101AF000C8E3D2E000E005C022970109FE010BBF58
:101B000090DACA33D10780E00807B1F7F894FFCF25
:101B10000000E2028000583A256420593A256420EA
:101B20005A3A25640000000000FF046E0654046D5C
:061B3000045F04DE040066
:00000001FF
